:020000040800F2
:10000000E06800204D03000857530008C946000867
:1000100025530008A90F0008A96600080000000089
:100020000000000000000000000000008D02000839
:100030009116000800000000E90200086D57000852
:1000400067030008670300086703000867030008E8
:1000500067030008670300086703000867030008D8
:1000600067030008670300086703000867030008C8
:10007000D5130008E5130008F5130008051400085F
:10008000151400082514000867030008491000082B
:10009000AD0F000867030008670300089316000807
:1000A0006703000867030008670300086703000888
:1000B0006703000841590008515900086703000808
:1000C0006703000867030008670300086703000868
:1000D00067030008B5630008CD630008E563000806
:1000E0006703000867030008670300086703000848
:1000F0006703000867030008670300086703000838
:100100006703000867030008670300086703000827
:10011000C55C000867030008615900086703000810
:10012000670300083514000845140008551400083A
:10013000670300086703000867030008AD100008A4
:1001400059100008670300086703000867030008E8
:10015000670300086514000875140008FD630008B3
:1001600067030008670300086703000867030008C7
:100170006703000867030008670300080000000029
:10018000670300086703000800F002F800F06EF84B
:100190000AA090E8000C82448344AAF10107DA45E2
:1001A00001D100F063F8AFF2090EBAE80F0013F0C6
:1001B000010F18BFFB1A43F00103184704C90000E0
:1001C00024C900000A444FF0000C10F8013B13F062
:1001D000070408BF10F8014B1D1108BF10F8015BA0
:1001E000641E05D010F8016B641E01F8016BF9D193
:1001F00013F0080F1EBF10F8014BAD1C0C1B09D1EA
:100200006D1E58BF01F801CBFAD505E014F8016B5B
:1002100001F8016B6D1EF9D59142D6D370470000ED
:100220000023002400250026103A28BF78C1FBD8FF
:10023000520728BF30C148BF0B6070471FB50CF094
:1002400064F99DE8030000F065FB00F047FB040043
:10025000002000210BF048FA401C606000F026FAF4
:100260001FBD10B5002000F0EEFA10BD00F0E2FB5B
:100270001146FFF7E3FF09F0D8F800F028FC03B4BB
:10028000FFF7EFFF03BC00F0CFFB00002C4B196819
:100290000868B0E8F04F80F30988BFF36F8F4FF024
:1002A000000080F3118870470000000008480068D3
:1002B000006880F308884FF0000080F3148862B66D
:1002C00061B6BFF34F8FBFF36F8F00DF00BF00BF7A
:1002D00008ED00E0DFF80C00016841F470010160F6
:1002E000704700BF88ED00E0EFF30980BFF36F8F28
:1002F000134B1A681EF0100F08BF20ED108A20E97A
:10030000F04F106009B44FF0500080F31188BFF334
:100310004F8FBFF36F8F0AF0B5FA4FF0000080F3F4
:10032000118809BC19680868B0E8F04F1EF0100F7A
:1003300008BFB0EC108A80F30988BFF36F8F704755
:100340003C000020EFF3058070470000094880471B
:1003500009480047FEE7FEE7FEE7FEE7FEE7FEE7A7
:10036000FEE7FEE7FEE7FEE704480549054A064BBF
:10037000704700003958000889010008E062002039
:10038000E0680020E0640020E064002053EA020CF2
:1003900000F069802DE9F04B4FF00006002B1FBFE5
:1003A000B3FA83F503FA05F424FA05F65E4012BFAA
:1003B0001643B2FA82F502FA05F4C5F120051EBF14
:1003C00022FA05FC44EA0C04203556EA044C4FEAB4
:1003D000144418BF641C4FF000084FF0000990420D
:1003E00071EB030C39D3002919BFB1FA81F701FA77
:1003F00007F6B0FA80F700FA07F6C7F120071EBF2C
:1004000020FA07FC46EA0C062037B6FBF4FCA7EB03
:100410000507103F07F01F0BCBF120060CFA0BFB72
:100420002CFA06F644BFB3460026202FA4BF5E4632
:100430004FF0000B5BEA060C08BF4FF0010B19EB05
:100440000B09ABFB027C48EB0608C01B06FB02CC89
:100450000BFB03CC71EB0C01C1E70B460246414696
:100460004846BDE8F08B13B54FF000004FF0000197
:10047000AFF30080BDE81C40704770B5064600F041
:1004800045F90468054630460A22002100F0A3F928
:100490002C6070BD2DE9F041074615460E46102030
:1004A00000F038F904000AD06760C4E9026500F082
:1004B00029F90168216004600020BDE8F081012075
:1004C000FBE7401ECAB210F8011F8A4202D0002981
:1004D000F9D100207047032A40F2308010F0030C5D
:1004E00000F0158011F8013BBCF1020F624498BF87
:1004F00011F801CB00F8013B38BF11F8013BA2F124
:10050000040298BF00F801CB38BF00F8013B11F09E
:10051000030300F02580083AC0F0088051F8043B3E
:10052000083A51F804CBA0E80810F5E7121D5CBFAB
:1005300051F8043B40F8043BAFF30080D20724BFDE
:1005400011F8013B11F801CB48BF11F8012B24BF72
:1005500000F8013B00F801CB48BF00F8012B7047C1
:1005600010B5203AC0F00B80B1E81850203AA0E84E
:100570001850B1E81850A0E81850BFF4F5AF5FEA82
:10058000027C24BFB1E81850A0E8185044BF18C935
:1005900018C0BDE810405FEA827C24BF51F8043BDC
:1005A00040F8043B08BF7047D20728BF31F8023B30
:1005B00048BF11F8012B28BF20F8023B48BF00F8C4
:1005C000012B704702F0FF0343EA032242EA024292
:1005D00000F05CB94FF0000200B513469446964611
:1005E000203922BFA0E80C50A0E80C50B1F1200146
:1005F000BFF4F7AF090728BFA0E80C5048BF0CC0F4
:100600005DF804EB890028BF40F8042B08BF704751
:1006100048BF20F8022B11F0804F18BF00F8012BC3
:10062000704700004FF0013C50F8042B51F8043B98
:100630009A4221D1A2EB0C03934313EACC1317D1B6
:1006400050F8042B51F8043B9A4215D1A2EB0C034D
:10065000934313EACC130BD150F8042B51F8043B0D
:100660009A4209D1A2EB0C03934313EACC13DBD0DB
:100670004FF00000704700BFD01A01BAB1FA81F103
:1006800001F0180122FA01F0CB40C1F12001DBB2E8
:10069000C0B2C01A2CFA01F3D11A914311EAC31166
:1006A000E6D17047704770477047000070B5064C40
:1006B0007C44064D7D4403E0206820448047241D8F
:1006C000AC42F9D170BD00003CC5000060C500001F
:1006D0002DE9F04117460E46054633B107FB03549A
:1006E000E41B2046B047A542FAD1A5F10800BDE8B9
:1006F000F081000010B500F0F1F8001D10BD00BF42
:10070000E9AF000000487047B4620020004870471D
:100710007C62002070B5064600F0DCF8056806F142
:100720000B0020F00704B4429CBF002070BD2B4694
:100730006A68BAB11068A04210D304F10801884277
:100740003CBF5068586007D3516810194160116868
:10075000091B016058601460101D70BD134652687B
:10076000002AE7D12146284600F0C0F80028DED153
:1007700070BD70B50446051F00F0ACF80068002C91
:1007800014BF446870BD002C18BFAC423CBF20466B
:100790006468F8D301680A18AA4218BF456003D1FB
:1007A0002A6805461144016028684119A1421CBF0E
:1007B0006C6070BD6168696021680844286070BD24
:1007C00010B5FFF7A3FF006810BD10B50446FFF792
:1007D0009DFF046010BD2DE9F04791460F4680460D
:1007E0000446002614F8015B2DB1FFF783FF006873
:1007F000405DC007F6D12B2D02D02D2D18D0641EE0
:100800004A463946204600F0BBF827B13968A14274
:1008100001D1C7F800804FF0020471050BD54042AA
:10082000002803DDFFF772FF0460A007BDE8F08732
:1008300046F48066E4E70028F8DAFFF767FF046013
:100840006FF00040F2E72DE9F0410646FFF75AFF4E
:100850008046454613E016B1E068B0420ED12068EC
:100860002860D4E90101D8F8007088472046FFF7D6
:1008700080FFD8F80000B842EBD100E025462C6894
:10088000002CE8D1BDE8F0814FF000020429C0F04F
:10089000128010F0030C3FF49FAECCF1040CBCF1BD
:1008A000020F18BF00F8012BA8BF20F8022BA1EB04
:1008B0000C01FFF791BE5FEAC17C24BF00F8012B59
:1008C00000F8012B48BF00F8012B70470048704723
:1008D0007C62002000487047846200200048704716
:1008E0009C620020704770477047704738B50446D7
:1008F0000A4600206946AFF30080002808BF38BDD3
:1009000002460099204600F0BAF8012038BD0120C7
:1009100000F0FFB8F8B5AFF30080054600200C46A4
:10092000102000BF0646A819A0420DD932466946DC
:100930000020AFF30080070008BF00F0EAF800983D
:10094000A04218BF0546C419FFF7C4FF056007465B
:10095000F01D20F007004619284600F00AF8B442BE
:1009600008BFF8BDA21B31463868BDE8F84000F06A
:1009700086B800210160C0E901107047102070475F
:100980002DE9F05F824615468B4600270AF10104E7
:10099000B9460078302801D09DB113E014F8010B5E
:1009A0000127782803D0582801D045B10AE00DB1BD
:1009B000102D07D1002714F8010B102502E008259F
:1009C00000E00A250026B0460EE005FB080005FB06
:1009D00006F101271FFA80F801EB1046B6F5803FBB
:1009E00000D3B94614F8010B294600F062F800283C
:1009F000EBDABBF1000F05D00FB1641E00E05446E6
:100A0000CBF80040B9F1000F06D0FFF77FFE0221BE
:100A10000160C81EBDE8F09F48EA0640FAE70028DA
:100A200001D000F001B8704701491820ABBEFEE7C5
:100A3000260002007546FFF749FFAE4605006946ED
:100A4000534620F00700854618B020B5FFF78CFC10
:100A5000BDE820404FF000064FF000074FF00008BF
:100A60004FF0000B21F00701AC46ACE8C009ACE840
:100A7000C009ACE8C009ACE8C0098D467047034620
:100A800040688C46002818BF88423CBF0346406837
:100A9000F8D318681844884207D00CF1030020F0FE
:100AA0000700001D411A521A0146081D0A60FFF78F
:100AB00060BE3A2800D2303820F02002412A01D30B
:100AC000A2F13700884201D34FF0FF30704710B5D4
:100AD0000446AFF300802046BDE81040FFF7CFBBCF
:100AE00070B505460C460A2000E06D1C00F018F8B1
:100AF00035B128780028F8D102E0641C00F010F825
:100B000014B120780028F8D1BDE870400A2000F028
:100B100007B810B500F00CF8BDE81040FFF77FBF34
:100B200008B569468DF800000320ABBE08BD7047CC
:100B300010B5012805D0002103A0FFF7D1FF012047
:100B400010BD09A1F8E7000053494752544D454DE7
:100B50003A204F7574206F662068656170206D655E
:100B60006D6F7279000000003A2048656170206D59
:100B7000656D6F727920636F727275707465640051
:100B80002DED068B88B0ED48007800F0010050B9DB
:100B9000EA4807F0A7FC30B1E948002180F82910A5
:100BA000E648AFF300800020E6490870486000BFC7
:100BB000E548808A40F2AA51884209DDE248808AED
:100BC00040F20E61884203DA40F2DC50DE4988824E
:100BD000DD48C08A40F2AA51884209DDDA48C08A5D
:100BE00040F20E61884203DA40F2DC50D649C882F6
:100BF000D548008A40F2AA51884227DDD248008AAF
:100C000040F20E61884221DACF48408A40F2AA5170
:100C100088421BDDCC48408A40F20E61884215DADA
:100C2000C848007828B90AF019FBC6494860012075
:100C300008700AF013FBC3494968401A322809D3E7
:100C400040F2DC50C0490882488203E00020BD49E0
:100C5000087048600122BD49BD4800680AF064F987
:100C6000B948008A48B9B848408A30B9B648808A3D
:100C700018B9B548C08A00287DD0B3494989A1F583
:100C80007A700AF04EFEB0F5C87F75DDAE4949892D
:100C9000A1F2DC500AF045FE32286EDA0220A849A3
:100CA00081F82000A849498A40F2DC52501A0BF022
:100CB0007DF841EC1A0B9FEDA70B53EC102B0AF0BB
:100CC0001DFF41EC190B9FEDA50B53EC102B0BF006
:100CD000C1F841EC180B0AF02BFE994948609A497B
:100CE000098A40F2DC52501A0BF060F841EC1A0B02
:100CF0009FED980B53EC102B0AF000FF41EC190B01
:100D00009FED960B53EC102B0BF0A4F841EC180B55
:100D10000AF00EFE8A4908608B49898AA1F2DC50EC
:100D20000BF044F841EC1A0B9FED8A0B53EC102B9F
:100D30000AF0E4FE41EC190B9FED8A0B53EC102BEB
:100D40000BF088F841EC180B0AF0F2FD7C49486181
:100D50007D49C98AA1F2DC500BF028F841EC1A0B4E
:100D60009FED7C0B53EC102B0AF0C8FE41EC190BE5
:100D70009FED7E0B02E0CEE0AEE084E053EC102B62
:100D80000BF068F841EC180B0AF0D2FD6C49886151
:100D9000091D081F06F058F97648007800F0010098
:100DA00050B9744807F09EFB30B17348002180F8B9
:100DB00029107048AFF300802A2261496E48FFF77E
:100DC000CFFB61490989A1F57A700AF0AAFD3228A2
:100DD00027DA5D49C989A1F57A700AF0A2FD3228A7
:100DE00004DA0020564981F827008CE05649C98969
:100DF000A1F5FA600AF095FD322811DA5249898985
:100E0000A1F57A700AF08DFD32287CDA4C48143056
:100E10009FED5A0A06F0AAF80220494981F82100FC
:100E200071E049490989A1F5FA600AF07AFD322892
:100E300069DA4549C989A1F57A700AF072FD32284C
:100E40000CDA41498989A1F57A700AF06AFD3228E5
:100E500004DA01203A4981F8210054E03A49C9896D
:100E6000A1F5FA600AF05DFD32284CDA364989892D
:100E7000A1F57A700AF055FD322844DA0220304993
:100E800081F821003FE030494989A1F5FA600AF074
:100E900048FD322837DA0320294981F82200012051
:100EA00081F8200028490989A1F5FA600AF039FD86
:100EB000322804DA0520224981F8210023E0224962
:100EC0000989A1F57A700AF02CFD32281BDA02207C
:100ED0001B4981F8210016E00020194981F8200003
:100EE00081F8210081F8220081F8230081F8240094
:100EF000012081F82500002081F8260081F82700D4
:100F0000022081F8280000231A460D491C48006879
:100F100009F0B8FE0EE020216846FFF75BFB2022B7
:100F200018496846FFF71CFB202269460448FFF772
:100F300017FB00BF012008F0A0FA39E628030020C3
:100F40002C5D002010030020985900202C03002065
:100F5000C40200200000000000407F409A99999947
:100F600099990D40000000000000044000000000BE
:100F70000000004030030020585D00200000000009
:100F8000A8020020BCC6000810B500221146044883
:100F900004F0CCFB05F0A4FC024807F0C9F910BD31
:100FA00008050020A916000800BFFEE710B502489A
:100FB00000F0B8FD10BD00007003002010B504461D
:100FC000A068E8B92068A0F2012020B1012808D06B
:100FD000022814D10CE004F11C010A4806F07BFA47
:100FE0000DE004F11C0107482C3006F074FA06E00D
:100FF00004F11C010348583006F06DFA00BF00BF31
:1010000010BD0000805F00201FB500BF4FF0FF3211
:1010100069460B48006809F087FF0128F6D100BF38
:10102000084800F064FDC4B2002CF9D09DF80C30E3
:10103000029881B26A46034808F0DAF9E6E7000050
:10104000940200207003002010B5024800F06AFDF1
:1010500010BD00007003002010B5024800F062FDD2
:1010600010BD000098030020704700001FB500BFAE
:101070004FF0FF3269460B48006809F055FF012820
:10108000F6D100BF00BF084800F031FDC4B2002C0B
:10109000F9D09DF80C306A460348029908F08AF9A5
:1010A000E6E70000980200209803002010B50248EF
:1010B00000F038FD10BD000098030020F0B58BB0A3
:1010C00007460C4615461E4604F0020080B1E804AF
:1010D0000190E80004F0030140EA41000290F004AE
:1010E0000390F00004F0030140EA4100049009E09D
:1010F00068010190A007400F029070010390A007C3
:10110000400F0490E0100690C4F380000590012089
:10111000099000200790012008900E200A9001A954
:10112000384600F089FB08B100F0B8FA0BB0F0BD0A
:1011300070B504460D46204600F0F5FF08B100F0FA
:10114000ADFA0121204600F0BDFA08B100F0A6FA80
:101150000221204600F0B6FA08B100F09FFA1021F3
:10116000204600F0AFFA08B100F098FA084920686C
:10117000884203D107480560002070BD06492068F9
:10118000884203D1054805600020F6E70120F4E716
:1011900000640040BC00002000680040C000002047
:1011A0002DED048B8EB000BF01227F497F4800687F
:1011B00009F0BAFE012878D17B4890F82100012877
:1011C0000BD1142278490C316846FFF7C9F97648EB
:1011D0000EC8774806F088FCDFE0734890F82100DD
:1011E00003280ED1202106A8FFF7F4F9142209A93B
:1011F0006846FFF7B5F96E4806A90EC906F074FCFB
:10120000CBE0694890F8210002283BD1664890ED78
:10121000000A10EE101A08460BF006F941EC190B03
:101220009FED640B53EC102B0AF014FE41EC180BED
:101230000AF07EFB5C490860084690ED010A10EE5A
:10124000101A08460BF0F0F841EC190B9FED590B02
:1012500053EC102B0AF0FEFD41EC180B0AF068FB72
:1012600051494860084690ED050A80ED050A1422B0
:101270000C316846FFF774F94B480EC84C4806F02D
:1012800033FC8AE0484890F8210078B9202106A86C
:10129000FFF7A0F9142209A96846FFF761F944484D
:1012A00006A90EC906F020FC77E079E03E4890F8E8
:1012B0002100052826D13C49091D081F3F4AD2EDCF
:1012C000001A3F4A92ED001ADFED3E0A9FED3E0AFA
:1012D00005F024FC3449091D081F05F0B5FE32480D
:1012E00090ED010AB1EE400A80ED010A142200F1EE
:1012F0000C016846FFF734F92B480EC82C4806F05D
:10130000F3FB4AE0284890F82100042836D126480B
:1013100090ED000A10EE101A08460BF085F841EC2B
:10132000190B9FED2A0B53EC102B0AF093FD41ECA7
:10133000180B0AF0FDFA1C490860084690ED010AF6
:1013400010EE101A08460BF06FF841EC190B9FEDE8
:101350001F0B53EC102B0AF07DFD41EC180B0AF02B
:10136000E7FA1149486014220C316846FFF7F8F893
:101370000D480EC80E4806F0B7FB0EE0202106A867
:10138000FFF728F9142209A96846FFF7E9F8084889
:1013900006A90EC906F0A8FB00BF054806F09CF997
:1013A000012008F06AF8FFE650620020A802002041
:1013B000285F0020666666666666E63F600200207B
:1013C00064020020F628E4403D0A973F9A999999D3
:1013D0009999C93F10B5024800F046FF10BD0000C2
:1013E000F808002010B5024800F03EFF10BD0000D4
:1013F000B806002010B5024800F036FF10BD00000E
:101400005809002010B5024800F02EFF10BD000062
:101410001807002010B5024800F026FF10BD00009C
:101420003808002010B5024800F01EFF10BD000073
:101430009808002010B5024800F016FF10BD00000B
:10144000B809002010B5024800F00EFF10BD0000E2
:10145000D807002010B5024800F006FF10BD0000BC
:101460001804002010B5024800F0FEFE10BD000078
:10147000180A002010B5024800F0F6FE10BD00006A
:10148000780700200146087810381823B0FBF3F2E3
:101490000848805CC865032A05D908686FF309000D
:1014A000001D886503E008686FF309008865886D92
:1014B0007047000088C60008014600208A6A8B69D0
:1014C000CBB932B1012A0DD0022A03D0032A10D1A0
:1014D0000EE000BFCB6A03F08073B3F1807F00D1D0
:1014E000012007E0CB6AB3F1C07F00D1012001E009
:1014F00000E000BF34E08B69B3F5005F1AD132B170
:10150000012A07D0022A03D0032A11D10AE000BF22
:1015100001200EE0CB6A03F08073B3F1807F00D12D
:10152000012006E0CB6AB3F1C07F00D1012000E0CA
:1015300000BF15E032B1012A05D0022A04D0032AE7
:101540000CD103E000BF00BF012008E0CB6A03F02C
:101550008073B3F1807F00D1012000E000BF00BFA5
:10156000704730B50468246824F4802405682C6032
:10157000046863608468402C04D10468A260046835
:10158000E16003E00468A1600468E26030BD00002F
:1015900010B500221021082009F08AFA2E490860AF
:1015A00000221021082009F083FA2C49086000224B
:1015B0000C21042009F07CFA2949086000220C2142
:1015C000042009F075FA2749086000222021042030
:1015D00009F06EFA2449086000222C21042009F049
:1015E00067FA2249086000220421022009F060FA0B
:1015F0001F49086000220121084609F059FA1D49D7
:10160000086000220F21012009F052FA1A490860EF
:1016100000220F21012009F04BFA1849086000222E
:101620000121042009F044FA154908600022012133
:10163000142009F03DFA134908600022012110200E
:1016400009F036FA1049086000220421102009F040
:101650002FFA0E49086010BD940200209802002065
:101660009C020020A0020020A4020020A80200206A
:10167000AC020020B8020020B0020020B40200201A
:10168000BC020020C0020020C4020020C8020020CA
:10169000704710B5802000F0D1FF10BD72B600BFBA
:1016A000FEE700BFFEE70000044800680068406AEB
:1016B00003490968C1EB014108447047C800002094
:1016C000C400002010B5024692F82030012B01D052
:1016D000022B06D11068406908431468606100203D
:1016E00010BD506A40F4802050620120F8E7F0B548
:1016F00004460D461E4694F8207020688368A8684A
:1017000000B900E000BF012F01D0022F7DD103F00E
:10171000806030B903F0006018B903F080500028F1
:101720007ED0C3F30161012088403060A86860B9B1
:10173000B5F800C0E86840EA4C5C206800F5C0706D
:1017400000EB0110C0F800C00FE0D5E901C040EA8D
:10175000CC00D5F80CC040EA0C00D4F800C00CF561
:10176000C07C0CEB011CCCF80000D5F810C0206840
:1017700000F5C07000EB0110C0F804C0287D0128FE
:101780000ED1206800F5C07000EB0110406840F4F5
:10179000807C206800F5C07000EB0110C0F804C028
:1017A000D079000692F806C040EA0C4092F805C0D5
:1017B00040EA0C2092F804C040EA0C00D4F800C0C3
:1017C0000CF5C07C0CEB011CCCF80C00D0780006AA
:1017D00092F802C040EA0C4092F801C040EA0C20A6
:1017E00092F800C040EA0C00D4F800C00CF5C07CB0
:1017F0000CEB011CCCF80800206800F5C07000EB71
:101800000110006840F0010C01E00FE008E02068E2
:1018100000F5C07000EB0110C0F800C00020F0BD62
:10182000606A40F4001060620120F8E7606A40F4EA
:10183000802060620120F2E7F0B504460A4694F881
:101840002050012D01D0022D7ED1424901F50071B9
:10185000086840F001000860086820F47C500860C7
:101860000868566A40EA06200860107D00F01F06EE
:10187000012000FA06F3C8699843C861A1F5007118
:10188000D069C8B9D1F80C029843C1F80C0290880D
:1018900080B2968940EA064601F51070576940F813
:1018A0003760108880B2168940EA064601F510704C
:1018B000576900EBC7004660D069012819D1D1F8FB
:1018C0000C021843C1F80C02908880B2168840EAD6
:1018D000064601F51070576940F83760908980B26C
:1018E000168940EA064601F51070576900EBC700FB
:1018F0004660906928B9D1F804029843C1F80402FF
:1019000004E0D1F804021843C1F80402106928B9B0
:10191000D1F814029843C1F8140204E0D1F814027B
:101920001843C1F81402106A012804D1D1F81C022E
:101930001843C1F81C02D1F8000220F00100C1F8E0
:1019400000020020F0BDFFE7606A40F48020606282
:101950000120F7E700640040704770B5044694F832
:101960002050012D01D0022D7DD151B92068C068D1
:1019700000F0030080B9606A40F40010606201204A
:1019800070BD2068006900F0030028B9606A40F467
:10199000001060620120F3E7206800F5D87000EBCA
:1019A0000110006800F004009060906840B9206861
:1019B00000F5D87000EB01100068400D106007E0E2
:1019C000206800F5D87000EB01100068C008506076
:1019D000206800F5D87000EB0110006800F00200EC
:1019E000D060206800F5D87000EB0110406800F06E
:1019F0000F00082802D30820106108E0206800F5D5
:101A0000D87000EB0110406800F00F0010612068F2
:101A100000F5D87000EB0110406800F47F40000A28
:101A20009061206800F5D87000EB01104068000C50
:101A30005061206800F5D87000EB011080681870C4
:101A4000206800F5D87000EB0110806800F47F403A
:101A5000000A5870206800F5D87000EB011080680B
:101A600000F47F0000E03CE0000C9870206800F576
:101A7000D87000EB01108068000ED870206800F567
:101A8000D87000EB0110C0681871206800F5D8709C
:101A900000EB0110C06800F47F40000A5871206814
:101AA00000F5D87000EB0110C06800F47F00000C56
:101AB0009871206800F5D87000EB0110C068000E26
:101AC000D87131B92068C06840F020002668F06005
:101AD00005E02068006940F02000266830610020A1
:101AE0004EE7606A40F480206062012048E70146CA
:101AF000002091F82020012A01D0022A11D10B6880
:101B00009B6803F0806303B1401C0B689B6803F083
:101B1000006303B1401C0B689B6803F0805303B162
:101B2000401C70472DE9F05F044600252068466997
:101B30002068D0F80490206887682068D0F80CA04E
:101B40002068D0F810B02068D0F8188006F00100A6
:101B5000002855D007F00100C0B10120216888603D
:101B600007F0020018B1204600F00DFB0EE007F070
:101B7000040010B145F4006508E007F0080010B15A
:101B800045F4805502E0204600F0FCFA07F480702E
:101B9000C8B14FF480702168886007F4007018B1F4
:101BA000204600F0F2FA0EE007F4806010B145F430
:101BB000005508E007F4006010B145F4804502E0EC
:101BC000204600F0E1FA07F48030C8B14FF48030CD
:101BD0002168886007F4003018B1204600F0D7FA79
:101BE0000EE007F4802010B145F4004508E007F44A
:101BF000002010B145F4803502E0204600F0C6FA1E
:101C000006F0080038B10AF0100020B145F4007564
:101C100010202168C86006F0040040B10AF00800F6
:101C200028B108202168C860204600F01FFA06F09D
:101C3000020038B12068C06800F0030010B12046EF
:101C400000F016FA06F0400038B10BF0100020B199
:101C500045F4806510202168086106F0200040B13D
:101C60000BF0080028B1082021680861204600F028
:101C70002BFA06F0100038B12068006900F003006C
:101C800010B1204600F022FA06F4003040B109F00D
:101C9000100028B1102021684860204600F042FA68
:101CA00006F4803040B109F0080028B1082021680E
:101CB0004860204600F06CFA06F4004088B309F052
:101CC000040078B306F4807020B108F0010008B178
:101CD00045F0010506F4007020B108F0020008B1DB
:101CE00045F0020506F4806020B108F0040008B158
:101CF00045F0040506F40060A0B108F0700088B15A
:101D000008F07000402817D006DC10280BD02028DF
:101D10000CD0302819D10CE0502810D0602814D1F4
:101D200010E01DE019E045F008050FE045F0100552
:101D30000CE045F0200509E045F0400506E045F0DF
:101D4000800503E045F4807500E000BF00BF206817
:101D5000806920F070002168886104202168486053
:101D60002DB1606A284360622046FFF7F5FDBDE8AB
:101D7000F09F70B504460CB9012070BD94F82000A6
:101D800010B9204600F0B0F82068006840F001006B
:101D90002168086000F060FD05460DE000F05CFD84
:101DA000401B0A2808D9606A40F4003060620520B0
:101DB00084F820000120E0E72068406800F001007E
:101DC0000028EBD02068006820F00200216808603D
:101DD00000F042FD05460DE000F03EFD401B0A28E4
:101DE00008D9606A40F400306062052084F8200061
:101DF0000120C2E72068406800F002000028EBD113
:101E0000207E012806D12068006840F0800021680B
:101E1000086005E02068006820F080002168086004
:101E2000607E012806D12068006840F040002168EB
:101E3000086005E02068006820F040002168086024
:101E4000A07E012806D12068006840F020002168AB
:101E5000086005E02068006820F020002168086024
:101E6000E07E012806D12068006820F0100021687B
:101E7000086005E02068006840F0100021680860F4
:101E8000207F012806D12068006840F00800216802
:101E9000086005E02068006820F0080021680860FC
:101EA000607F012806D12068006840F004002168A6
:101EB000086005E02068006820F0040021680860E0
:101EC000D4E9020108432169084361690843616854
:101ED000491E08432168C86100206062012084F81F
:101EE0002000002049E7000010B586B00446142108
:101EF00001A8FEF76FFB57492068884249D1564830
:101F00000068401C544908600846006801280FD149
:101F100000BF002000905148006840F000704F4919
:101F200008600846006800F00070009000BF00BF25
:101F300000BF0020009049481038006840F00800B9
:101F40004649103908600846006800F00800009013
:101F500000BF00BF032001900220029000200390E8
:101F6000032004900920059001A93D4800F074FB6E
:101F700000220521132000F037FD132000F020FD82
:101F800000220521142000F02FFD142000F018FD80
:101F90005DE034492068884259D100BF002000909C
:101FA0002E48006840F080602C49086008460068B0
:101FB00000F08060009000BF00BF27480068401C10
:101FC000254908600846006801280FD100BF00209D
:101FD00000902248006840F00070204908600846E0
:101FE000006800F00070009000BF00BF00BF00203C
:101FF00000901A481038006840F002001749103964
:1020000008600846006800F00200009000BF00BFB2
:102010004FF44050019002200290002003900320D2
:1020200004900920059001A90F4800F015FB00223B
:1020300005213F2000F0D8FC3F2000F0C1FC002229
:102040000521402000F0D0FC402000F0B9FC06B093
:1020500010BD00000064004028000020403802400D
:10206000000C02400068004000040240704700007D
:1020700010B504460F4884420BD10F4BA3F11C024C
:1020800000212046FFF769FC0B481C380B49096802
:1020900088470B4884420BD1074BA3F11C02002157
:1020A0002046FFF75AFC04481C380649096888474F
:1020B00010BD000070030020D0530020BC000020A1
:1020C00098030020C00000207047000010B50446AF
:1020D0000F4884420BD10F4BA3F11C020121204673
:1020E000FFF73BFC0B481C380B49096888470B4835
:1020F00084420BD1074BA3F11C0201212046FFF7BC
:102100002CFC04481C3806490968884710BD0000AB
:1021100070030020F4530020BC000020980300202E
:10212000C0000020704770B5044694F820000128D4
:1021300022D1022084F820002068006820F00100ED
:102140002168086000F088FB05460DE000F084FB84
:10215000401B0A2808D9606A40F4003060620520FC
:1021600084F82000012070BD2068406800F0010064
:102170000028EBD16062F6E7606A40F400206062FC
:102180000120F0E77047704770477047704770470D
:10219000704770B50446A56D00F05EFB064694F8E6
:1021A0003500022808D08020606500BF002084F838
:1021B000340000BF012070BD2068006820F01600C8
:1021C000216808602068406920F08000216848612B
:1021D000206C08B9A06C28B12068006820F00800C5
:1021E000216808602068006820F00100216808600C
:1021F00010E000F031FB801B05280BD92020606522
:10220000032084F8350000BF002084F8340000BFAC
:102210000320D0E72068006800F001000028E8D122
:1022200094F85C103F208840A860012084F83500B5
:1022300000BF002084F8340000BF00BFBBE70146A8
:1022400091F83500022803D08020486501207047AE
:10225000052081F835000868006820F001000A6850
:1022600010600020F3E70000F8B50446002000905D
:102270008C4800684FF41651B0FBF1F7A56D2E683D
:1022800094F85C1008208840304098B120680068BD
:1022900000F0040070B12068006820F0040021689C
:1022A000086094F85C1008208840A860606D40F0D9
:1022B0000100606594F85C1001208840304068B1EE
:1022C0002068406900F0800040B194F85C10012063
:1022D0008840A860606D40F00200606594F85C1072
:1022E00004208840304068B12068006800F0020097
:1022F00040B194F85C1004208840A860606D40F004
:102300000400606594F85C1010208840304078B379
:102310002068006800F0080050B394F85C101020AA
:102320008840A8602068006800F4802080B12068A0
:10233000006800F4002028B9206CC8B12046216C48
:10234000884715E0A06C98B12046A16C88470FE043
:102350002068006800F4807028B92068006820F0C8
:10236000080021680860206C10B12046216C884765
:1023700094F85C10202088403040002865D0206808
:10238000006800F0100000285FD094F85C10202056
:102390008840A86094F83500052828D12068006896
:1023A00020F01600216808602068406920F0800055
:1023B00021684861206C08B9A06C28B120680068C9
:1023C00020F008002168086094F85C103F208840E5
:1023D000A860012084F8350000BF002084F8340094
:1023E00000BF206D10B12046216D8847F8BD2068E0
:1023F000006800F4802080B12068006800F40020AC
:1024000028B9606C10B12046616C88471DE0E06B14
:10241000D8B12046E16B884717E02068006800F4D7
:10242000807068B92068006820F01000216808609A
:10243000012084F8350000BF002084F8340000BF7C
:10244000E06B10B12046E16B8847606D38B3606D7A
:1024500000F00100F0B1052084F835002068006824
:1024600020F001002168086000BF0098401C009027
:10247000B84200D905E02068006800F0010000289B
:10248000F3D100BF012084F8350000BF002084F89C
:10249000340000BFE06C10B12046E16C884700BFFB
:1024A000A4E70000380000202DE9F0410446002593
:1024B00000F0D2F9074614B90120BDE8F081606A46
:1024C00000B100BF022084F8350000BF002084F86E
:1024D000340000BF2068006820F001002168086017
:1024E0000AE000F0B9F9C01B052805D92020606575
:1024F000032084F83500E0E72068006800F0010060
:102500000028EED12068056821480540D4E9010182
:102510000843E16808432169084361690843A169E8
:102520000843E1690843216A08430543606A0428B7
:1025300003D1D4E90B0108430543206805602068F6
:10254000456925F00705606A0543606A04280DD1D6
:10255000A06A0543E06A48B12046FEF7ADFF28B106
:1025600040206065012084F83500A6E720684561B9
:102570002046FEF787FF064694F85C103F2088400F
:10258000B06000206065012084F83500002094E7E9
:102590003F8010F02DE9F04704460D4616461F46D1
:1025A0004FF00008D4F8589000BF94F83400012888
:1025B00002D10220BDE8F087012084F8340000BF7A
:1025C00094F83500012825D1022084F83500002038
:1025D00060653B46324629462046FEF7C2FF94F826
:1025E0005C103F208840C9F808002068006840F06F
:1025F000160021680860206C28B12068006840F04F
:102600000800216808602068006840F00100216827
:10261000086006E000BF002084F8340000BF4FF0DF
:1026200002084046C6E7000010B504468022214655
:10263000014805F0DBFD10BD9859002010B5044697
:1026400004480068204020B1024804602046FFF79B
:10265000EBFF10BD143C0140F8B502460B460025C7
:10266000002400200021D6E0012606FA01F51E68AC
:1026700006EA0504AC4274D11E7906F00306012E69
:1026800004D01E7906F00306022E13D190684F0085
:102690000326BE40B0434F00DE68BE40304390602A
:1026A000506801268E40B0431E79C6F300168E4056
:1026B000304350601E7906F00306032E09D0D0681F
:1026C0004F000326BE40B0434F009E68BE403043DB
:1026D000D0601E7906F00306022E13D1CF0802F156
:1026E000200656F827004E07F70E0F26BE40B043CF
:1026F0004F07FF0E1E69BE403043CF0802F120068F
:1027000046F8270010684F000326BE40B0431E79EC
:1027100006F003064F00BE40304310605E6806F4CA
:102720004036002E76D000BF002600963C4E36681C
:1027300046F480463A4F3E603E46366806F4804690
:10274000009600BF00BF374E8F0856F827008E074F
:10275000370F0F26BE40B043334EB24202D100269F
:1027600024E057E0314EB24201D101261EE0304E46
:10277000B24201D1022619E02E4EB24201D1032607
:1027800014E02D4EB24201D104260FE02B4EB2428E
:1027900001D105260AE02A4EB24201D1062605E003
:1027A000284EB24201D1072600E008268F073F0FCE
:1027B000BE4030431B4E8F0846F82700224E30683B
:1027C000A0435E6806F4801606B120431E4E3060BA
:1027D000361D3068A0435E6806F4001606B120433B
:1027E000194E361D3060184E361F3068A0435E68A3
:1027F00006F4003606B12043134E361F3060361FF4
:102800003068A0435E6806F4803606B120430E4E61
:10281000083E3060491C1029FFF426AFF8BD0000C7
:1028200044380240083801400000024000040240E1
:1028300000080240000C0240001002400014024058
:1028400000180240001C0240083C01400AB18161AE
:1028500001E00B0483617047014800687047000085
:102860002C00002003480068034909780844014906
:10287000086070472C0000203400002010B50D487F
:10288000006840F400700B4908600846006840F496
:10289000806008600846006840F48070086003208B
:1028A00000F0E0F80F2000F007F800F05FF80020DB
:1028B00010BD0000003C02402DE9F04188B0044604
:1028C0000027B84600BF002001902348006840F070
:1028D0000200214908600846006800F002000190EB
:1028E00000BF00BF02A903A800F092F9069F1FB91C
:1028F00000F0B6F9054602E000F0B2F945001748CD
:10290000B5FBF0F0A0F1010815481649086040F247
:10291000E7311448C160C0F8048000210161816082
:10292000816100F00BFE064696B90E4800F096FE57
:1029300006466EB91D2000F043F8102C07D2002285
:1029400021461D2000F050F80748046000E00126F1
:10295000304608B0BDE8F0814038024040420F00E8
:1029600000040040780A00203000002008B500BFB5
:10297000002000901148006840F480400F49086032
:102980000846006800F48040009000BF00BF00BF10
:1029900000200090081F006840F08050091F086068
:1029A0000846006800F08050009000BF00BF002281
:1029B0000F21901E00F018F808BD000044380240B6
:1029C0000146084600280DDB00BF00BF00F01F03D2
:1029D00001229A4043099B0003F1E023C3F8002140
:1029E00000BF00BF00BF70472DE9F05F80460D4675
:1029F0001646002705F048FD074639462A46334665
:102A000001F00700C0F1070ABAF1040F02D94FF034
:102A1000040A01E0C0F1070AD14600F1040ABAF144
:102A2000070F02D24FF0000A01E0A0F1030AD446DA
:102A30004FF0010A0AFA09FAAAF1010A0AEA020A9F
:102A40000AFA0CFA4FF0010B0BFA0CFBABF1010B7D
:102A50000BEA030B4AEA0B042146404605F01CFD35
:102A6000BDE8F09F00BF00F00702064B19684FF663
:102A7000FF031940044B0B4343EA0221014B196049
:102A800000BF70470CED00E00000FA0570B5044689
:102A90000D460CB9012070BD5848006800F00700D1
:102AA000A84209D255490D700846006800F0070099
:102AB000A84201D00120EEE7207800F002000228B1
:102AC0001DD1207800F00400042805D14C4800688E
:102AD00040F4E0504A490860207800F008000828D7
:102AE00005D14748006840F46040454908604448C3
:102AF000006820F0F000A168084341490860207890
:102B000000F00100A8B36068012807D13C480838EC
:102B10000068C0F34040B8B90120BCE760680228F3
:102B200002D06068032807D1354808380068C0F330
:102B3000406048B90120AEE7314808380068C0F36A
:102B4000400008B90120A6E72D48006820F00300E6
:102B5000616808432A490860FFF77EFE064609E0DF
:102B6000FFF77AFE801B41F28831884202D90320A8
:102B700091E707E02248006800F00C006168B0EBC4
:102B8000810FEDD11D48006800F00700A84209D967
:102B90001A490D700846006800F00700A84201D0ED
:102BA000012078E7207800F00400042807D11448B9
:102BB000006820F4E050E16808431149086020787B
:102BC00000F00800082808D10D48006820F4604093
:102BD000216940EAC1000A49086000F061F808492B
:102BE0000968C1F30311074A515CC84006490860EF
:102BF00006480068FFF760FE00204CE7003C0240FA
:102C00000838024090C6000838000020300000203C
:102C10000F2202600D4A126802F0030242600B4A62
:102C2000126802F0F0028260084A126802F4E05270
:102C3000C260064A126802F46042D2080261044A85
:102C4000126802F007020A6070470000083802406C
:102C5000003C024001480068704700003800002036
:102C600000B5FFF7F7FF04490968C1F38221034A61
:102C7000515CC84000BD000008380240A0C60008F2
:102C800000B5FFF7E7FF04490968C1F34231034A81
:102C9000515CC84000BD000008380240A0C60008D2
:102CA0002DE9F047002400250026A14625480068AC
:102CB00000F00C0020B1042805D008283AD105E026
:102CC000DFF8849039E0DFF8849036E01D48001F7B
:102CD000006800F03F041B48001F006800F48000FB
:102CE00078B11A481749091F0968C1F38811A0FB78
:102CF00001700146224600233846FDF747FB054692
:102D00000EE011480F49091F0968C1F38811A0FBA3
:102D100001700146224600233846FDF737FB054681
:102D20000848001F0068C0F30140401C4600B5FB86
:102D3000F6F902E0DFF8109000BF00BF4846BDE89A
:102D4000F0870000083802400024F40000127A00E6
:102D5000F8B504460CB90120F8BD207800F0010058
:102D6000002874D0F948006800F00C0004280DD049
:102D7000F648006800F00C00082813D1F348001F43
:102D8000006800F48000B0F5800F0BD1EF480838E0
:102D90000068C0F34040002859D06068002856D130
:102DA0000120D9E700BF6068B0F5803F08D1E7484F
:102DB0000838006840F48030E449083908601EE0B3
:102DC0006068B0F5A02F0DD1E0480838006840F4E5
:102DD0008020DE49083908600846006840F48030E9
:102DE00008600CE0D9480838006820F48030D749E2
:102DF000083908600846006820F48020086000BF99
:102E0000606890B1FFF728FD054606E0FFF724FD56
:102E1000401B642801D903209EE7CC48083800688D
:102E2000C0F340400028F1D011E0FFF715FD054642
:102E300006E0FFF711FD401B642801D903208BE752
:102E4000C24808380068C0F340400028F1D120781B
:102E500000F0020002285FD1BC48006800F00C00BE
:102E600058B1BA48006800F00C0008281CD1B748D7
:102E7000001F006800F48000B0B9B448083800684A
:102E8000C0F3400020B1E068012801D0012063E7D1
:102E9000AE480838006820F0F800216940EAC10017
:102EA000AA490839086037E0E06800B30120A84962
:102EB0000860FFF7D1FC054606E0FFF7CDFC401B9C
:102EC000022801D9032047E7A04808380068C0F36A
:102ED00040000028F1D09D480838006820F0F80034
:102EE000216940EAC10099490839086014E00020CE
:102EF00097490860FFF7B0FC054606E0FFF7ACFC19
:102F0000401B022801D9032026E7904808380068B2
:102F1000C0F340000028F1D1207800F00800082814
:102F20002CD16069A8B101208A490860FFF794FCA0
:102F3000054606E0FFF790FC401B022801D903205C
:102F40000AE782486C300068C0F340000028F1D0E6
:102F500014E000207F490860FFF77EFC054606E08C
:102F6000FFF77AFC401B022801D90320F4E67748DA
:102F70006C300068C0F340000028F1D1207800F0E8
:102F80000400042870D1002770483830006800F031
:102F9000805090B900BF002000906C483830006825
:102FA00040F080506949383108600846006800F0F8
:102FB0008050009000BF00BF01276748006800F400
:102FC0008070B0B96448006840F48070624908605D
:102FD000FFF742FC054606E0FFF73EFC401B0228D7
:102FE00001D90320B8E65C48006800F4807000282E
:102FF000F2D000BFA068012808D1544868300068AA
:1030000040F001005149683108601DE0A0680528C2
:103010000DD14E486830006840F004004B496831DB
:1030200008600846006840F0010008600CE047486E
:103030006830006820F001004449683108600846A3
:10304000006820F00400086000BFA068A8B1FFF786
:1030500003FC054609E0FFF7FFFB401B41F2883106
:10306000884202D9032077E626E0384868300068B5
:10307000C0F340000028EED013E0FFF7EDFB05465B
:1030800008E0FFF7E9FB401B41F28831884201D993
:10309000032061E62D4868300068C0F34000002836
:1030A000EFD1012F07D129483830006820F0805037
:1030B00026493831086000BFA069002845D0234860
:1030C000006800F00C0008285DD0A069022845D1F6
:1030D00000201F490866FFF7BFFB054606E0FFF723
:1030E000BBFB401B022801D9032035E617480838EE
:1030F0000068C0F340600028F1D1D4E9070108431B
:10310000616A40EA81110122A06AC2EB500041EAE3
:1031100000412C20005D41EA00600C49091F086055
:1031200001200B490866FFF797FB054606E0FFF70D
:1031300093FB401B022801D903200DE60348083801
:103140000068C0F340600028F1D049E00838024030
:1031500000004742800E4742007000400020214995
:103160000866FFF779FB054606E0FFF775FB401B95
:10317000022801D90320EFE51B480068C0F3406036
:103180000028F2D12CE0A069012800D1E4E516481E
:10319000001D0668A069012820D006F48001E069BE
:1031A00081421BD106F03F01206A814216D147F6C9
:1031B000C0703040616AB0EB811F0FD106F440311E
:1031C0000122A06AC2EB5000B1EB004F06D106F01D
:1031D00070612C20005DB1EB006F01D00120BBE5D8
:1031E0000020B9E50000474200380240704710B5A2
:1031F00004460CB9012010BD606A38B96068B0F5AA
:10320000827F00D105E00021E16102E0002121611F
:1032100061610021A16294F8510028B9002084F86E
:103220005000204600F048F8022084F85100206841
:10323000006820F0400021680860A08800F48270D7
:10324000218901F404410843A18901F40061084384
:10325000217C01F002010843217D01F001010843B6
:10326000218B01F400710843217F01F038010843EC
:103270002021095D01F080010843218D01F40051F6
:103280000843216808600421A06901EA104094F80D
:10329000241001F010010843216848602068C069CB
:1032A00020F400602168C86100206065012084F876
:1032B000510000209FE7000010B586B0044614219D
:1032C00001A8FDF787F92A49206888424DD100BF3F
:1032D000002000902748006840F48050254908608D
:1032E0000846006800F48050009000BF00BF00BF97
:1032F000002000901F481438006840F001001D496C
:10330000143908600846006800F00100009000BF12
:1033100000BFA02001900220029000200390032013
:1033200004900520059001A91348FFF795F913486B
:10333000134908604FF0C060486040211048816028
:103340000021C1604FF48061016100214161816110
:10335000C16101624162FFF7A7F808B1FEF79EF96B
:1033600000BF0748A064846300BF06B010BD000022
:1033700000300140443802400000024058640240DE
:10338000180400202DE9F04104460E46154694F835
:103390005100012802D00220BDE8F08106B10DB92C
:1033A0000120F9E700BF94F85000012801D1022064
:1033B000F2E7012084F8500000BF032084F8510098
:1033C000002060652663A586E586A06360642064AE
:1033D000A087E087A068B0F5004F0BD12068006897
:1033E00020F04000216808602068006840F48040B8
:1033F000216808601F48A16C08641F48A16CC8635D
:103400001E48A16CC8640020A16C0865E38E276883
:1034100007F10C02216BA06CFFF7BCF850B1606D96
:1034200040F01000606500BF002084F8500000BF2D
:103430000120B1E72068006800F04000402805D076
:103440002068006840F040002168086000BF00204C
:1034500084F8500000BF2068406840F020002168D8
:1034600048602068406840F0020021684860002001
:1034700092E700003D5500084B550008155500081F
:10348000704770477047704730B502460B4600BF23
:1034900092F83C00012801D1022030BD012082F8C1
:1034A0003C0000BF022082F83D00106844681068AC
:1034B000816824F070041868044310684460184D53
:1034C0001068A8421BD01068B0F1804F17D0154D7E
:1034D0001068A84213D0144D1068A8420FD0134DA5
:1034E0001068A8420BD0124D1068A84207D0114DA9
:1034F0001068A84203D0104D1068A84205D121F0F1
:1035000080015868014310688160012082F83D0005
:1035100000BF002082F83C0000BF00BFBDE70000F4
:10352000000001400004004000080040000C004082
:1035300000040140004001400018004010B504465E
:103540000CB9012010BD94F83D0028B9002084F882
:103550003C00204600F026F8022084F83D00211DA2
:10356000206802F005FA012084F8460000BF84F8C4
:103570003E0001213F2001554020015541200155C9
:1035800000BF00BF012084F84200432001554420C1
:1035900001554520015500BF012084F83D00002061
:1035A000D0E7000038B5044628492068884218D181
:1035B00000BF002000902648006840F00400244925
:1035C00008600846006800F00400009000BF00BFDB
:1035D000002205211E20FFF707FA1E20FFF7F0F951
:1035E00032E01C492068884218D100BF00200090BA
:1035F0001748006840F01000154908600846006848
:1036000000F01000009000BF00BF0022052136200E
:10361000FFF7EAF93620FFF7D3F915E00E492068E5
:10362000884211D100BF002000900948001D0068A9
:1036300040F400300649091D08600846006800F49F
:103640000030009000BF00BF38BD000000080040FF
:10365000403802400010004000440140014691F80B
:103660003D00012801D001207047022081F83D0073
:103670000868C06840F001000B68D8601A4B086801
:1036800098421BD00868B0F1804F17D0174B0868DC
:10369000984213D0164B086898420FD0154B086813
:1036A00098420BD0144B0868984207D0134B086817
:1036B000984203D0124B086898420CD10868806881
:1036C00000F00702062A0CD00868006840F00100EC
:1036D0000B68186005E00868006840F001000B689E
:1036E00018600020C0E70000000001400004004016
:1036F00000080040000C0040000401400040014070
:10370000001800402DE9F04104460D46002700BF97
:1037100094F83C00012802D10220BDE8F08101208C
:1037200084F83C0000BF022084F83D0020688668D1
:1037300026F0770626F47F462068866028685028A1
:1037400033D00CDC202850D004DC00284BD01028CB
:1037500051D149E0302849D040284CD139E0602887
:103760002DD0702807D0B0F5805F03D0B0F5005F92
:1037700041D10DE041E0D5E902136A68206802F00A
:1037800078F92068866846F077062068866034E01D
:10379000D5E902136A68206802F06BF92068806836
:1037A00040F480402168886027E0EA686968206802
:1037B00002F050FA5021206802F066F91DE0EA6834
:1037C0006968206802F059FA6021206802F05CF90B
:1037D00013E0EA686968206802F03CFA402120683A
:1037E00002F052F909E000BF00BF00BF296820685D
:1037F00002F04AF901E0012700BF00BF012084F870
:103800003D0000BF002084F83C0000BF384684E73C
:10381000704770B504462068C5682068066906F0E0
:103820000200022819D105F00200022815D1401F1C
:1038300021680861012020772068806900F003007A
:1038400018B12046FFF7E4FF05E0204600F0C8F875
:10385000204600F07CF90020207706F004000428C0
:1038600019D105F00400042815D1C043216808616E
:10387000022020772068806900F4407018B120464B
:10388000FFF7C6FF05E0204600F0AAF8204600F04A
:103890005EF90020207706F00800082819D105F00D
:1038A0000800082815D1C04321680861042020774A
:1038B0002068C06900F0030018B12046FFF7A8FF98
:1038C00005E0204600F08CF8204600F040F900208A
:1038D000207706F01000102819D105F010001028EC
:1038E00015D1C04321680861082020772068C0698D
:1038F00000F4407018B12046FFF78AFF05E020462B
:1039000000F06EF8204600F022F90020207706F043
:10391000010048B105F0010030B16FF001002168ED
:103920000861204600F09AF906F08000802809D14D
:1039300005F08000802805D1C04321680861204639
:10394000FFF7A0FD06F04000402809D105F0400037
:10395000402805D1C04321680861204600F092F953
:1039600006F02000202809D105F02000202805D1EC
:10397000C043216808612046FFF785FD70BD000047
:1039800010B586B00446142101A8FCF723FE1149A6
:10399000206888421CD100BF002000900E480068BB
:1039A00040F020000C4908600846006800F0200044
:1039B000009000BF00BF4020019002200290002034
:1039C000039004900320059001A90448FEF744FEEB
:1039D00006B010BD004401403038024000140240DF
:1039E00070472DE9F04104460D461646002700BFFA
:1039F00094F83C00012802D10220BDE8F0810120AA
:103A000084F83C0000BF36B1042E1BD0082E31D004
:103A10000C2E5ED145E02946206802F03FF8206870
:103A2000806940F00800216888612068806920F082
:103A30000400216888612068806929690843216839
:103A4000886148E02946206802F060F820688069B3
:103A500040F40060216888612068806920F48060FB
:103A60002168886120688069296940EA012021680D
:103A7000886130E02946206802F086F82068C06935
:103A800040F008002168C8612068C06920F0040087
:103A90002168C8612068C069296908432168C86134
:103AA00019E02946206802F0ABF82068C06940F4AC
:103AB00000602168C8612068C06920F480602168C6
:103AC000C8612068C069296940EA01202168C8618D
:103AD00001E0012700BF00BF00BF002084F83C00C8
:103AE00000BF384689E710B504460CB9012010BD67
:103AF00094F83D0028B9002084F83C00204600F0EE
:103B000025F8022084F83D00211D206801F030FFD7
:103B1000012084F8460000BF84F83E0001213F20C8
:103B20000155402001554120015500BF00BF012033
:103B300084F8420043200155442001554520015599
:103B400000BF012084F83D000020D0E77047704797
:103B500070B504460D4615B994F83E000BE0042DEF
:103B600002D13F20005D06E0082D02D14020005D1B
:103B700001E04120005D012801D0012070BD1DB988
:103B8000022084F83E000EE0042D03D102213F20E4
:103B9000015508E0082D03D102214020015502E023
:103BA00002214120015501222946206801F050FFE1
:103BB00023492068884203D022492068884201D1E5
:103BC000012000E0002028B12068406C40F4004053
:103BD000216848641A49206888421BD02068B0F1E7
:103BE000804F17D018492068884213D017492068A1
:103BF00088420FD01649206888420BD011492068AE
:103C0000884207D013492068884203D012492068AF
:103C100088420CD12068806800F00706062E0CD080
:103C20002068006840F001002168086005E0206815
:103C3000006840F001002168086000209EE7000055
:103C40000000014000040140000400400008004062
:103C5000000C0040004001400018004010B5044630
:103C600006492068884201D1FEF7FCFD044920681E
:103C7000884201D102F010FD10BD00000004004098
:103C8000000800407047704770B504460025206862
:103C90004069C0F3C01594F84100212817D1B5B18F
:103CA00000BF00BF2168143151E8001F21F08000DF
:103CB0002168143141E80002002AF3D100BFA06B53
:103CC00010B1A06BFEF765FA204602F0EAF8206812
:103CD0004069C0F3801594F84200222817D1B5B18D
:103CE00000BF00BF2168143151E8001F21F04000DF
:103CF0002168143141E80002002AF3D100BFE06BD3
:103D000010B1E06BFEF745FA204602F084F800207F
:103D100070BD70472DE9F84F04462068056820689B
:103D2000C668206847694FF00009CA4605F00F09C8
:103D3000B9F1000F0AD105F0200038B106F02000DB
:103D400020B1204602F0C0F8BDE8F88FB9F1000FAD
:103D50007CD007F0010018B906F49070002875D0E7
:103D600005F0010030B106F4807018B1606C40F0CD
:103D70000100606405F0040030B107F0010018B1E3
:103D8000606C40F00200606405F0020030B107F0A2
:103D9000010018B1606C40F00400606405F0080098
:103DA00048B106F0200010B907F0010018B1606CAE
:103DB00040F008006064606C002846D005F02000E8
:103DC00028B106F0200010B1204602F07DF82068EE
:103DD0004069C0F3801A606C00F0080010B9BAF1B5
:103DE000000F2DD0204602F016F82068406900F040
:103DF0004000402820D100BF00BF2168143151E8A5
:103E0000001F21F040002168143141E80002002A1F
:103E1000F3D100BFE06B50B17F48E16B0865E06B08
:103E2000FEF70DFA88B1E06B016D88470DE0204682
:103E3000FFF76FFF09E009E02046FFF76AFF04E0A3
:103E40002046FFF766FF002060647DE7206B0128B5
:103E500078D105F01000002874D006F0100000287A
:103E6000FAD000BF00200090206800680090206811
:103E70004068009000BF00BF2068406900F040002B
:103E8000402870D1E06B006840681FFA80F8B8F1F4
:103E9000000F58D0A08D404555DDA4F82E80E06B72
:103EA000C069B0F5807F43D000BF00BF21680C31EE
:103EB00051E8001F21F4807021680C3141E80002B4
:103EC000002AF3D100BF00BF00BF2168143151E8C0
:103ED000001F21F001002168143141E80002002A8E
:103EE000F3D100BF00BF00BF2168143151E8001FAB
:103EF00021F040002168143141E80002002AF3D18A
:103F000000BF202084F842000020206300BF00BFD3
:103F100021680C3151E8001F21F0100021680C319C
:103F200041E80002002AF3D100BFE06BFEF731F94F
:103F300002206063A08DE28D801A81B22046FFF7D7
:103F4000A2FE0EE052E0A08D40450AD1E06BC069B0
:103F5000B0F5807F05D102206063A18D2046FFF778
:103F600092FEF1E6FFE7A08DE18D401A1FFA80F87E
:103F7000E08DD0B3B8F1000F37D000BF00BF21688B
:103F80000C3151E8001F21F4907021680C3141E898
:103F90000002002AF3D100BF00BF00BF2168143126
:103FA00051E8001F21F001002168143141E80002AE
:103FB000002AF3D100BF202084F8420000202063B3
:103FC00000BF00BF21680C3151E8001F21F0100034
:103FD00021680C3141E80002002AF3D100BF022021
:103FE000606341462046FFF74EFEADE605F08000D7
:103FF00030B106F0800018B1204602F065F9A3E662
:1040000005F0400030B106F0400018B1204601F044
:1040100038FF99E600BF97E6DD5C000810B504465E
:104020000CB9012010BDA06900B100E000BF94F8F8
:10403000410028B9002084F84000204600F02AF80A
:10404000242084F841002068C06820F400502168D2
:10405000C860204601F0B6FF2068006920F4904057
:10406000216808612068406920F02A0021684861C1
:104070002068C06840F400502168C8600020606477
:10408000202084F8410084F842000020606300BFD3
:10409000C8E7000010B586B00446142101A8FCF75B
:1040A00099FAF7492068884275D100BF0020009036
:1040B000F448006840F40020F249086008460068AF
:1040C00000F40020009000BF00BF00BF002000905F
:1040D000EC481038006840F00400EA4910390860E4
:1040E0000846006800F00400009000BF00BF4FF4D5
:1040F0004060019002200290012003900320049070
:104100000820059001A9E048FEF7A6FADF48E0493B
:104110000860400548600021DD488160C1604FF4BF
:1041200080610161002141618161C161016241627F
:10413000FEF7BAF908B1FDF7B1FA00BFD448E06361
:10414000846300BFD1483030D24908604FF000602E
:1041500048604021CF4881600021C1604FF48061F8
:104160000161002141618161C16101624162FEF72B
:104170009BF908B1FDF792FA00BFC648A0638463BB
:1041800000BF002205213420FEF72EFC3420FEF76C
:1041900017FC13E2FFE7C0492068884278D100BFCE
:1041A00000200090B748001D006840F01000B5499D
:1041B000091D08600846006800F01000009000BF6C
:1041C00000BF00BF00200090AE481038006840F0EB
:1041D0000100AC49103908600846006800F0010091
:1041E000009000BF00BF4FF4C06001900220029019
:1041F00000200390032004900720059001A9A74800
:10420000FEF72AFAA648A74908604FF00060486008
:104210004021A44881600021C1604FF480610161A8
:10422000002141618161C16101624162FEF73CF997
:1042300008B1FDF733FA00BF9A48A063846300BF5A
:1042400097487838984908604FF00060486000212E
:1042500095488160C1604FF4806101610021416136
:104260008161C16101624162FEF71EF908B1FDF78B
:1042700015FA00BF8C48E063846300BF002205216B
:104280002520FEF7B1FB2520FEF79AFB96E1FFE71C
:1042900086492068884276D100BF00200090794886
:1042A000006840F40030774908600846006800F470
:1042B0000030009000BF00BF00BF00200090714898
:1042C0001038006840F008006E4910390860084650
:1042D000006800F00800009000BF00BF602001905F
:1042E00002200290002003900320049007200590F4
:1042F00001A96F48FEF7B0F9644848306D4908607D
:104300004FF00060486000216A488160C1604FF44E
:1043100080610161002141618161C161016241628D
:10432000FEF7C2F808B1FDF7B9F900BF6148E063D4
:10433000846300BF554860305F4908604FF00060FB
:10434000486040215C4881600021C1604FF4806179
:104350000161002141618161C16101624162FEF739
:10436000A3F808B1FDF79AF900BF5348A06384632E
:1043700000BF002205212620FEF736FB2620FEF78F
:104380001FFB1BE1FFE74D492068884276D100BF43
:10439000002000903B48006840F4802039490860C4
:1043A0000846006800F48020009000BF00BF00BFF6
:1043B0000020009033481038006840F00200314976
:1043C000103908600846006800F00200009000BF45
:1043D00000BF4FF440600190022002900020039043
:1043E000032004900720059001A93548FEF734F911
:1043F00026481838334908604FF0006048600021B3
:1044000030488160C1604FF48061016100214161E9
:104410008161C16101624162FEF746F808B1FDF7B2
:104420003DF900BF2748E063846300BF1748183098
:10443000254908604FF000604860402122488160B3
:104440000021C1604FF480610161002141618161FF
:10445000C16101624162FEF727F808B1FDF71EF95C
:1044600000BF1948A063846300BF002205212720F4
:10447000FEF7BAFA2720FEF7A3FA9FE026E0000035
:10448000004C0040403802400008024040600240BA
:10449000B80600201807002000100140000002406C
:1044A000B864024078070020D8070020004400408C
:1044B000000C024038080020980800200048004006
:1044C00000040240F8080020580900203C492068F8
:1044D000884273D100BF002000903A48006840F045
:1044E0002000384908600846006800F0200000906D
:1044F00000BF00BF00BF00200090324814380068A1
:1045000040F040002F49143908600846006800F068
:104510004000009000BF00BF4FF484400190022093
:10452000029001200390032004900820059001A927
:104530002548FEF791F82548254908608005486020
:10454000002123488160C1604FF480610161002136
:1045500041618161C16101624162FDF7A5FF08B15E
:10456000FDF79CF800BF1A48E063846300BF17485A
:104570007830184908604FF02060486040211548A5
:1045800081600021C1604FF48061016100214161BF
:104590008161C16101624162FDF786FF08B1FDF7EB
:1045A0007DF800BF0B48A063846300BF0022052193
:1045B0004720FEF719FA4720FEF702FA06B010BDB1
:1045C00000140140443802400018024028640240B0
:1045D000B8090020180A002070B504460D4616469A
:1045E00094F8420020280BD105B10EB9012070BD0E
:1045F0000020206332462946204601F0F9FDF6E707
:104600000220F4E7704770472DE9F84F04460E4644
:10461000174699464FF0000A94F84100202850D1DF
:1046200006B117B90120BDE8F88F00206064212091
:1046300084F84100FEF710F98246A784E784A06859
:10464000B0F5805F04D1206910B90025B04602E0C2
:1046500035464FF000081EE05346002280212046D8
:10466000CDF8009001F060FE20B1202084F84100D8
:104670000320D8E745B9B8F80000C0F30800216866
:10468000486008F1020803E02878216848606D1C42
:10469000E08C401EE084E08C0028DDD153460022EF
:1046A00040212046CDF8009001F03EFE20B12020B0
:1046B00084F841000320B6E7202084F84100002060
:1046C000B1E70220AFE7704700BFFEE700B5632205
:1046D0003121DE2002F060F800BD00B50022114655
:1046E000082002F059F800BD00B508220021084654
:1046F00002F052F800BD00B500221146104602F04B
:104700004BF800BD00B50022F721FF2002F044F86D
:1047100000BD000000BF002233493448006806F0A5
:1047200003FC012821D130480078052818D2DFE8A1
:1047300000F0030F070B130000202D49087013E051
:1047400003202B4908700FE00120294908700BE075
:1047500002202749087007E005202549087003E07A
:1047600004202349087000BF00BF214800780628B4
:1047700034D2DFE800F0031213082E0DFFF7B4FF68
:1047800002F022F82AE0FFF7A1FF02F01DF825E071
:10479000FFF7B8FF02F018F820E000BF06F05EFD5A
:1047A00004464FF4AF60B4FBF0F100FB1145B5F5E2
:1047B0002F7F09D20E480078012802D1FFF78DFF24
:1047C00004E000F017F801E0FFF795FF01F0FCFFAF
:1047D00004E0FFF790FF01F0F7FF00BF00BF0A20E1
:1047E00004F04BFE97E7000051030020C0020020B8
:1047F0005003002000B500220821104601F0CCFF34
:1048000000BD70B505460024284600F07BF804433F
:1048100005F1140000F076F80443204670BD000056
:10482000F8B50446002533482060334800686060CE
:1048300000202072802060720020A072E0600021C1
:10484000218261822D4860612D480168A1610021AB
:104850002177802161770021A1772162A184E18401
:10486000002000904FF47A71684605F0EFFE642056
:1048700004F003FE204600F0B3F8054304F11400F1
:1048800000F0AEF80543642004F0F7FD204600F088
:10489000B9F8054304F1140000F0B4F80543D5B1AC
:1048A000012600BF0025204600F0ACF8054304F1C6
:1048B000140000F0A7F8054305B90AE0032E01DB58
:1048C0002846F8BD4FF47A7004F0D7FD701CC6B2CC
:1048D000E8E700BF00BF642004F0CFFD204600F0F1
:1048E0004FF8054304F1140000F04AF80543284648
:1048F000E7E7000070060020B0020020500500200D
:10490000B40200202DE9F0410446002500221B4995
:10491000606806F009FB01282DD11848807900064F
:10492000164FFF7940EA0740144F3F7A40EA0720CC
:10493000124F7F7A40EA07021048C07A0F4FBF7AC1
:1049400040EA07230D48067B0021012005E00B4FBC
:104950003F5C0F44F9B2471CF8B20C28F7DB8E42DB
:1049600002D1E260238205E0608A40F0040767829A
:1049700045F0010500BF2846BDE8F081F45C002049
:10498000FEB50446002513A207CA8DE80700A07AE9
:104990008DF801009DF801009DF8021008449DF873
:1049A000031008449DF8041008449DF805100844BD
:1049B0009DF8061008449DF807100844C6B28DF80B
:1049C00008600A2309226946206800F0ADFC05430F
:1049D0002846FEBDAA0000200001000400000000DF
:1049E00038B50446002506A0006800900523012282
:1049F0006946206800F098FC0543284638BD000051
:104A000058000000FEB5044600251FA207CA8DE825
:104A10000700A07A8DF801009DF801009DF80210B2
:104A200008449DF8031008449DF8041008449DF8BC
:104A3000051008449DF8061008449DF80710084426
:104A4000C6B28DF808600A2309226946206800F082
:104A50006BFC054332220F49606806F065FA0128B5
:104A60000CD169460B48FBF7DDFD08B90020FEBDFF
:104A7000608A40F0020161820120F8E7608A40F01C
:104A8000010161820120F2E7AA0001BE00010001DC
:104A900000000000F45C002038B504460D460020FC
:104AA000009002236A4621460948006806F0BEF9D4
:104AB00001280BD1009838B14FF0805005490860AB
:104AC000BFF34F8FBFF36F8F012038BD0020FCE78D
:104AD000B402002004ED00E038B504460D46002085
:104AE000009002236A4621460948006806F09EF9B4
:104AF00001280BD1009838B14FF08050054908606B
:104B0000BFF34F8FBFF36F8F012038BD0020FCE74C
:104B1000B002002004ED00E008B5002400BF00BF93
:104B200006F09CFB00902C48FFF77AFE04436420BB
:104B300004F0A3FC00BF002400BF002126484182EE
:104B4000C184FFF75EFE04432348006A23490860DE
:104B50002148C068224908602048006810B1084612
:104B6000006850B9642004F088FC1B48FFF758FE29
:104B700042F2107004F081FCDDE71848006800F292
:104B8000011000EE100AB8EE400AB1EE400A9FEDA7
:104B9000151AC0EE010A144890ED000A30EE800AA2
:104BA000124880ED000A0E48006800F5BB7000EE68
:104BB000100AB8EE400A9FED0B1AC0EE010A0C482D
:104BC00090ED000A30EEC00A0A4880ED000A282164
:104BD000684605F03BFDAEE7045D0020F0020020D2
:104BE000EC02002000007A44FC020020F8020020C1
:104BF00000030020F402002000BF4FF4967004F080
:104C00003CFCFAE72DE9F04706460F460024A04693
:104C1000A24644E0305D40283FD1A0464FF0000A54
:104C2000601CC5B232E0705D3F282DD1A5EB0800B5
:104C3000401E1FFA80F9B9F1000F20DD08F10100D4
:104C400030441A4908601A48A0F8009001881748B3
:104C5000006804F0C3FC174890ED000A164880ED88
:104C6000000A164890ED000A154880ED000A154824
:104C700090ED000AB8EEC00A134880ED000A681CE7
:104C8000C4B24FF0010A03E0681CC5B2BD42CADBE2
:104C900000BFBAF1000F02D103E0601CC4B2BC42F5
:104CA000B8DB00BF0020BDE8F0870000F000002066
:104CB000F4000020E4000020D4000020E8000020E0
:104CC000D8000020EC000020DC00002010B50E48C9
:104CD0000E4908600320486000210C488160C160D3
:104CE0004FF4002101614FF4401141610021017630
:104CF00041768176C17601774177FDF73AF808B1C0
:104D0000FCF7CCFC10BD00000064004070030020E4
:104D100010B50E480E4908600320486000210C4879
:104D20008160C1604FF4002101614FF44011416185
:104D30000021017641768176C17601774177FDF7D2
:104D400018F808B1FCF7AAFC10BD0000006800408C
:104D50009803002008B500BF002000903A48006882
:104D600040F48000384908600846006800F480007C
:104D7000009000BF00BF00BF002000900846006800
:104D800040F4001008600846006800F4001000902D
:104D900000BF00BF002205210C20FDF725FE0C20DE
:104DA000FDF70EFE002205210D20FDF71DFE0D2052
:104DB000FDF706FE002205210E20FDF715FE0E2050
:104DC000FDF7FEFD002205210F20FDF70DFE0F204F
:104DD000FDF7F6FD002205211020FDF705FE10204D
:104DE000FDF7EEFD002205211120FDF7FDFD11204C
:104DF000FDF7E6FD002205213920FDF7F5FD3920FC
:104E0000FDF7DEFD002205213A20FDF7EDFD3A20F9
:104E1000FDF7D6FD002205213B20FDF7E5FD3B20F7
:104E2000FDF7CEFD002205214520FDF7DDFD4520E3
:104E3000FDF7C6FD002205214620FDF7D5FD4620E1
:104E4000FDF7BEFD08BD00003038024010B5234A12
:104E50000021234804F066FB22490860224A002111
:104E6000224804F05FFB22490860224A00212248C0
:104E700004F058FB21490860214A0021214804F030
:104E800051FB21490860214A0021214804F04AFBD6
:104E900020490860204A0021204804F043FB2049B3
:104EA0000860204A0021204804F03CFB1F490860AC
:104EB0001F4A00211F4804F035FB1F4908601F4AA4
:104EC00000211F4804F02EFB1E4908601E4A0021E5
:104ED0001E4804F027FB1E49086010BD20C50008CD
:104EE000091000080000002044C50008A1110008B6
:104EF0000400002068C500086D10000808000020AC
:104F00008CC50008B16600080C000020B0C5000880
:104F1000810B000810000020D4C50008194B0008C0
:104F200014000020F8C50008F94B00081800002004
:104F30001CC6000825A200081C00002040C600086E
:104F4000154700082000002064C6000863570008C9
:104F50002400002000B587B0142102A8FBF73AFB1B
:104F600000BF002001904C48006840F004004A490E
:104F700008600846006800F00400019000BF00BF10
:104F800000BF002001900846006840F02000086043
:104F90000846006800F02000019000BF00BF00BF7D
:104FA000002001900846006840F080000860084634
:104FB000006800F08000019000BF00BF00BF00202B
:104FC00001900846006840F001000860084600684B
:104FD00000F00100019000BF00BF00BF0020019061
:104FE0000846006840F0020008600846006800F0CB
:104FF0000200019000BF00BF00BF002001900846E2
:10500000006840F0080008600846006800F00800EA
:10501000019000BF00BF00BF00200190084600685B
:1050200040F0400008600846006800F04000019031
:1050300000BF00BF002289151848FDF707FC80203B
:1050400002904FF4881003900020049002A91448A5
:10505000FDF702FB4FF480700290012003900220C4
:105060000490059002A90D48FDF7F6FA4FF4806010
:105070000290002003900120049002A90748FDF748
:10508000EBFA002205211720FDF7AEFC1720FDF7F3
:1050900097FC07B000BD000030380240000C024011
:1050A0000014024010B50E480E4908604FF482709B
:1050B000486000210B488160C160016141614FF48B
:1050C000007181611821C161002101624162816228
:1050D0000A21C162FEF78BF808B1FCF7DFFA10BDB8
:1050E00000300140C003002000B587B01C21684695
:1050F000FBF770FA154816490860532048600021F4
:105100001348816040F63301C16000210161816173
:10511000FEF714FA08B1FCF7C1FA0D48FEF7E3FCFC
:1051200008B1FCF7BBFA60200090002001900290CB
:105130000490002269460648FEF753FC08B1FCF7CC
:10514000ADFA0348FEF71CFC07B000BD0044014067
:105150000805002000B587B000200390049005905A
:10516000069001900290144814490860532048604A
:105170000021124881604FF6FF71C160002101617A
:105180008161FEF7DBF908B1FCF788FA4FF4805033
:10519000039003A90948FEF7B5FA08B1FCF77EFAB7
:1051A00000200190029001A90448FEF76DF908B1B2
:1051B000FCF774FA07B000BD000800407804002036
:1051C0001CB50020009001900E480F490860002097
:1051D000486000210C4881604FF6FF71C1600021DA
:1051E0008161FEF7ABF908B1FCF758FA0020009096
:1051F000019069460448FEF747F908B1FCF74EFAFA
:105200001CBD000000100040C004002010B50B4879
:105210000B4908604FF496404860002108488160BF
:10522000C16001610C21416100218161C161FEF712
:10523000F5FE08B1FCF732FA10BD0000004C00404A
:105240005005002010B50B480B4908604FF4E130C1
:105250004860002108488160C16001610C21416102
:1052600000218161C161FEF7D9FE08B1FCF716FA91
:1052700010BD0000001001409805002010B50B483B
:105280000B4908604FF4E130486000210848816014
:10529000C16001610C21416100218161C161FEF7A2
:1052A000BDFE08B1FCF7FAF910BD00000044004053
:1052B000E005002010B50B480B4908604FF4E130C1
:1052C0004860002108488160C16001610C21416192
:1052D00000218161C161FEF7A1FE08B1FCF7DEF992
:1052E00010BD0000004800402806002010B50B4803
:1052F0000B4908604FF496404860002108488160DF
:10530000C16001610C21416100218161C161FEF731
:1053100085FE08B1FCF7C2F910BD00000014014081
:105320007006002000BFFEE72DE9F04104460D465F
:1053300016461F464FF000083B4632462946204697
:10534000FFF762F98046B8F1000F02D10020BDE8F6
:10535000F0810120FBE700BFFEE72DE9F0410546A3
:105360000E4614461F46E56066602046FEF7E6F8E6
:1053700039462046FEF7ECFBBDE8F081F8B5034660
:105380000D4600240022012666E0082C61D2DFE8E9
:1053900004F0040E18222C3F4D57985CFC2802D1D3
:1053A000601CC4B200E00024501CC2B253E0985C00
:1053B000FB2802D1601CC4B200E00024501CC2B221
:1053C00049E0985C012802D1601CC4B200E00024CE
:1053D000501CC2B23FE0985C182802D1601CC4B2D5
:1053E00000E00024501CC2B235E0A5F11801914242
:1053F00000DA0026002006E0995C1A4F3954511C4F
:10540000CAB2411CC8B21828F6DB611CCCB222E03B
:10541000002006E0995C0DF80010511CCAB2411C36
:10542000C8B20228F6DB611CCCB214E0985CFD28FF
:1054300002D1601CC4B200E00024501CC2B20AE0D9
:10544000985CFE2802D1074801F0E2F8002400260B
:1054500001E0002400BF00BFAA4201DA012E94D06F
:105460000020F8BD1C5A002000B52DED028B85B040
:10547000F0EE408AB0EE608A002001900290039026
:105480000490FC208DF80400FB208DF8050001201D
:105490008DF8060008208DF80700CDED008A9DF8F4
:1054A00000008DF808009DF801008DF809009DF8B6
:1054B00002008DF80A009DF803008DF80B008DEDB9
:1054C000008A9DF800008DF80C009DF801008DF811
:1054D0000D009DF802008DF80E009DF803008DF878
:1054E0000F0000208DF810008DF81100FD208DF8C0
:1054F0001200FE208DF813004FF0FF33102201A997
:105500000348FFF781F805B0BDEC028B00BD000039
:105510002806002070B50546AC6B2068406820F076
:10552000030021684860606D40F010006065012054
:1055300084F851002046FDF759FE70BD70B5044651
:10554000A56B2846FDF79DFF70BDF8B50546AC6B11
:10555000FDF782F906462868006800F48070B0F50F
:10556000807F2DD02068406820F0200021684860AE
:105570002068406820F002002168486032466421BB
:10558000204600F023F818B1606D40F020006065FF
:10559000A06850B900BF002000902068C06800904B
:1055A00020688068009000BF00BF0020E0860120D6
:1055B00084F85100606D18B12046FDF717FEF8BD64
:1055C0002046FDF75DFF00BFF9E700007CB504460B
:1055D0000E4615463346012202212046009500F072
:1055E00039F828B1606D40F02000606503207CBD73
:1055F000164800681821B0FBF1F01549B0FBF1F036
:105600004FF47A71484301906068B0F5827F0DD104
:105610003346002280212046009500F01BF898B107
:10562000606D40F0200060650320E0E700BF019856
:1056300000B908E00198401E019020688068C0F31E
:10564000C0100028F3D100BF0020D0E738000020B0
:1056500040420F002DE9F84F04460D4690461E4685
:10566000DDF82890FDF7F8F8A0EB0900371AFDF7F0
:10567000F3F882462C480068C0F3CB3078430090A2
:1056800046E0701C002843D0FDF7E6F8A0EB0A00C6
:10569000B84200D2A7BB2068406820F0E000216833
:1056A00048606068B0F5827F0DD1A068B0F5004F0A
:1056B00003D0A068B0F5806F05D12068006820F0A5
:1056C000400021680860A06AB0F5005F0DD100BFFE
:1056D0002068006820F40050216808602068006895
:1056E00040F400502168086000BF012084F8510098
:1056F00000BF002084F8500000BF0320BDE8F88FF1
:10570000FFE7009808B9002702E00098401E0090CB
:10571000206880682840A84201D1012000E00020D4
:105720004045AED10020E9E73800002070B51346AF
:1057300000240568EC6A651C5D436426B5FBF6F23F
:1057400011B905686A630BE0042902D10568AA63F0
:1057500006E0082902D10568EA6301E005682A64C9
:1057600070BD00BF012003F088FEFBE710B54FF0CD
:10577000E020006905F062FD012801D005F07EF906
:1057800010BD000000B593B0302107A8FAF722FF42
:10579000142102A8FAF71EFF00BF00200190244840
:1057A000006840F08050224908600846006800F018
:1057B0008050019000BF00BF00BF002001901D4835
:1057C000006840F480401B4908600846006800F407
:1057D0008040019000BF00BF0120079000040890A6
:1057E00002200D9041050E9104210F91A8211091E6
:1057F000022111910421129107A8FDF7A9FA08B11D
:10580000FBF74CFF0F200290022003900020049031
:105810004FF4A05005904FF480500690052102A847
:10582000FDF734F908B1FBF739FF13B000BD0000F4
:1058300040380240007000400348006840F47000A7
:10584000014908607047000088ED00E010B5FBF7E3
:105850009FFE0221254800F025FA0023244A49F63C
:105860003F4141F26700FFF778FD22492248FBF7EC
:105870005FFC22492248FBF75BFC00231A461946CD
:105880001D48FBF71BFC00231A460C211A48FBF7A6
:1058900015FC00231A4672211948FBF70FFC002360
:1058A0001A467E211648FBF709FC164B232216499F
:1058B000164800F0AFFD164B23221649164800F09B
:1058C000A9FD164B32221649164800F0A3FD164BCF
:1058D0000F221649164800F09DFD164B0F2216495F
:1058E000164800F097FDFBF74FFB10BD7804002031
:1058F00008050020BD0F0008700300206910000893
:10590000980300207D5300089F5B0020280600209C
:10591000054C0008D15B0020E0050020BD660008B2
:10592000F45B002098050020D94A0008C25B0020E3
:1059300070060020994A0008265C002050050020CF
:1059400010B50248FDF765FF10BD0000780A002081
:1059500010B50248FDF75DFF10BD0000780400207F
:1059600010B50248FDF755FF10BD0000C00400202F
:1059700010B502682B4B98420ED0B0F1804F0BD07F
:10598000294B984208D0294B984205D0284B984281
:1059900002D0284B984203D122F070024B681A4380
:1059A000204B984220D0B0F1804F1DD01E4B984222
:1059B0001AD01E4B984217D01D4B984214D01D4B45
:1059C000984211D01C4B98420ED01C4B98420BD0E1
:1059D0001B4B984208D01B4B984205D01A4B98425B
:1059E00002D01A4B984203D122F44072CB681A437A
:1059F00022F080034C6943EA04028B68C3620B689F
:105A00008362084B984202D00A4B984201D10B693D
:105A10000363036843F004030360012343610260EE
:105A200010BD0000000001400004004000080040DC
:105A3000000C0040000401400040014000440140CF
:105A40000048014000180040001C004000200040B9
:105A500030B501F01F05012404FA05F3046A9C43E4
:105A60000462046A01F01F0502FA05F52C43046282
:105A700030BD30B50C46816821F47F4142EA0325F0
:105A800025432943816030BD0A46816821F07001B9
:105A900042F00703194381607047000030B5026A85
:105AA000056A25F0010505624368846924F07004E5
:105AB00024F003040D682C4322F002028D682A436F
:105AC000104DA84200D103E00F4DA84206D100BFFF
:105AD00022F00802CD682A4322F00402094DA842B0
